:020000040800F2
:1000000000000224AD1F02085933000861330008C4
:1000100069330008713300087933000800000000DC
:10002000000000000000000000000000E18A01085C
:100030008133000800000000318D0108AD83010804
:10004000FD1F0208FD1F0208FD1F0208FD1F020818
:10005000FD1F0208FD1F0208FD1F0208FD1F020808
:10006000FD1F0208FD1F0208FD1F02089133000852
:10007000A5330008B9330008CD330008E133000888
:10008000F533000809340008FD1F02081D3400087C
:10009000313400084534000859340008FD1F0208B7
:1000A000FD1F0208FD1F0208FD1F0208FD1F0208B8
:1000B000FD1F0208FD1F0208FD1F0208FD1F0208A8
:1000C000FD1F0208FD1F0208FD1F0208FD1F020898
:1000D0006D3400088134000895340008A934000804
:1000E000FD1F0208FD1F020800000000BD340008CB
:1000F000D1340008E5340008FD1F0208F934000877
:10010000FD1F0208FD1F0208FD1F0208FD1F020857
:10011000FD1F02080D350008FD1F0208FD1F020823
:100120002135000835350008493500085D350008DF
:1001300071350008FD1F0208FD1F0208FD1F02089F
:1001400000000000000000000000000000000000AF
:10015000FD1F0208FD1F0208FD1F0208FD1F020807
:10016000FD1F0208FD1F0208FD1F0208FD1F0208F7
:10017000FD1F020885350008FD1F02080000000071
:10018000FD1F0208FD1F020899350008FD1F020827
:10019000FD1F0208FD1F0208FD1F0208FD1F0208C7
:1001A000FD1F0208FD1F0208FD1F020800000000DD
:1001B000FD1F0208FD1F0208FD1F0208FD1F0208A7
:1001C000FD1F0208FD1F02080000000000000000E3
:1001D0000000000000000000FD1F020800000000F9
:1001E000000000000000000000000000000000000F
:1001F0000000000000000000FD1F0208FD1F0208B3
:10020000FD1F0208FD1F020800000000FD1F02087C
:10021000FD1F0208FD1F0208FD1F0208FD1F020846
:10022000FD1F020800000000FD1F02080000000082
:10023000FD1F0208FD1F020800000000FD1F02084C
:10024000FD1F0208FD1F0208FD1F0208FD1F020816
:10025000FD1F0208FD1F0208FD1F0208FD1F020806
:10026000FD1F0208FD1F0208FD1F0208FD1F0208F6
:10027000FD1F0208FD1F0208FD1F0208000000000C
:10028000FD1F0208FD1F0208FD1F0208FD1F0208D6
:1002900000000000FD1F0208FD1F02080000000012
:1002A00000000000FD1F0208FD1F0208FD1F0208DC
:1002B000AD350008FD1F0208FD1F0208C13500080A
:0C02C000D5350008E9350008FD1F0208D4
:1002D00070B5104E336805460C46B3B1214628462A
:1002E00000F02AFC431C0CD0C41C24F00304A042E0
:1002F00005D0211A284600F01FFC013001D020460D
:1003000070BD4FF0FF34204670BD194600F014FC5C
:100310003060E3E7D80100242DE9F843CD1C25F037
:10032000030508350C2D38BF0C25002D064618DBBB
:10033000A94216D8DFF8DC8000F06EF8D8F8042067
:10034000A2B1144603E0636822467BB11C462368D1
:100350005B1BF8D40B2B1FD89442636854D05360B6
:100360000CE00C2333600020BDE8F88329463046BA
:10037000FFF7AEFF431C044619D00560304600F07D
:1003800051F804F10B00231D20F00700C21A1CBF16
:100390001B1AA350BDE8F88361199442256014BF6D
:1003A0005160C8F80410635163684B60E6E7D8F801
:1003B00004701FB33C467F68002FFBD12368394689
:1003C000304604EB030900F0B7FB814516D12368E2
:1003D000ED1A29463046FFF77BFF01300ED0236827
:1003E000D8F804202B442360536883B1A34203D080
:1003F0001A465B689C42FBD10023B0E70C233360B4
:10040000304600F00FF8AEE7C8F80430B6E7C8F899
:100410000470B3E7D8010024014800F0EDBB00BF31
:1004200030030024014800F0EFBB00BF300300247C
:10043000024A0349034800F069B900BF10000024D4
:10044000290F0008200000240C4B4168994210B588
:10045000044601D000F068FDA168094B994202D022
:10046000204600F061FDE168064B994204D0204629
:10047000BDE8104000F058BD10BD00BFE0010024F1
:1004800048020024B002002408B54B6EDA0702D4FB
:100490008B899B0501D5002008BD886D00F0ACFB61
:1004A000002008BD08B54B6EDA0702D48B899B0586
:1004B00001D5002008BD886D00F0A6FB002008BD16
:1004C0002DE9F843314C3249DFF8D890DFF8D88075
:1004D000304FC4F83811002504232946082204F1BE
:1004E0005C002D4EE360C4E90055C4E90455A560E5
:1004F0006566A56100F090FA04F15800C4E9084966
:10050000C4E90A87266300F06FFB2946234B636723
:10051000082204F1C400C4E91A55C4E91E55256730
:10052000C4F8CC50C4F8805000F076FA04F16803A7
:1005300004F1C000C4F88830C4E92398C4E92576E2
:1005400000F052FB164BC4F8DC30294604F59670D7
:100550000822C4E93455C4E93855C4F8D850C4F861
:100560003451C4F8E85000F057FA04F1D003C4E95C
:100570003E87C4F8F49004F59470C4F80061C4F8A0
:10058000F030BDE8F84300F02FBB00BFE0010024CD
:100590003104000889080008AD08000809000100BE
:1005A000120002002108000849080008F8B50646B4
:1005B0002A4800F021FB2A4BD3F83831002B43D0D6
:1005C000284FD7E90134013B04D524E05A1C04F13B
:1005D000680420D0B4F90C50013B002DF6D1224B19
:1005E000E36004F15800656600F0FEFA1B4800F075
:1005F0000BFBC4E90155C4E9045508222560A56137
:10060000294604F15C0000F007FAC4E90D55C4E97D
:1006100012552046F8BD3D680DB12F46D1E74FF485
:10062000D6713046FFF778FE044680B10423C0E956
:1006300000530C302946A0604FF4D072254600F0DC
:10064000EBF93C602F46BCE7FFF73AFFB8E70348F9
:100650003C6000F0D9FA0C233360DAE73C03002455
:10066000E0010024100000240100FFFF10B5044643
:100670000B4800F0C1FA236A2BB90A4B0A4AD3F897
:100680003831226223B1BDE81040054800F0BCBA01
:10069000FFF716FFBDE81040014800F0B5BA00BFF3
:1006A0003C030024E001002449040008014800F054
:1006B000A3BA00BF3C030024014800F0A5BA00BF64
:1006C0003C03002408B5054800F096FABDE8084050
:1006D000034A0449002000F019B800BF3C0300247D
:1006E000100000248904000808B5054A05490020C7
:1006F00000F00CF8BDE80840034800F085BA00BFE0
:1007000010000024A50400083C0300242DE9F84350
:100710000746884616464FF00009D6E90154013DC8
:1007200010D4A389012B08D9B4F90E300133214626
:10073000384602D0C04749EA0009013D6B1C04F16C
:100740006804EED13668002EE7D14846BDE8F8834C
:10075000036A2DE9F041846880460E46002B53D091
:10076000626EB4F90C30D50701D4980546D5190747
:1007700017D52369ABB1013EA36816F8015F013BB1
:10078000A36025B3002B07DAA769BB42224629469E
:10079000404617DB0A2D15D023685A1C22601D70B5
:1007A000EAE72146404600F0D5F80028E3D04FF0B4
:1007B000FF35636EDA0702D4A3899B0518D5284656
:1007C000BDE8F08100F076F80130D5D1EFE7002BDD
:1007D00008DA22460A21404600F06CF80130E6D0E3
:1007E0000A25E6E723680A22591C21601A70F7E7F8
:1007F000A06D00F009FA2846BDE8F081A06D00F078
:10080000FBF9B4F90C30B2E7FFF730FFA8E700BFFF
:10081000024B01461868FFF79BBF00BF1C00002475
:1008200010B50C46B1F90E1000F070F9002803DB8A
:10083000636D0344636510BDA38923F48053A381D2
:1008400010BD00BF002070472DE9F0410C46B1F902
:100850000C101F46CB05054616460BD421F48051DB
:10086000A1813B46B4F90E1032462846BDE8F0415E
:1008700000F074B9B4F90E100223002200F030F930
:10088000B4F90C10EAE700BF10B50C46B1F90E1030
:1008900000F026F9B4F90C30421C0EBF23F480534B
:1008A00043F480536065A38110BD00BFB1F90E1001
:1008B00000F004B9F8B50D461446064610B1036AB7
:1008C000002B37D0A389A269A2601A0719D5236922
:1008D000BBB122686169D31AEDB299422F4620DD7F
:1008E0000133A1680139A160511C21601570626952
:1008F0009A420DD0A389DB0701D50A2D08D03846CE
:10090000F8BD2146304600F025F838B92369E0E704
:100910002146304600F008FB0028F0D04FF0FF37AA
:10092000EDE72146304600F0FFFA0028F6D12268B4
:100930000123D6E7FFF79AFEC4E700BF10B4044CCA
:1009400003460A4620685DF8044B1946FFF7B2BF1C
:100950001C00002438B52F4B1B6805460C4613B10C
:100960001A6A002A4BD0B4F90C3018071CD522693A
:1009700022B313F0010107D0616900204942A06051
:10098000A1613AB1002038BD980758BF6169A160E4
:10099000002AF7D1190658BF1046F4D543F040039A
:1009A000A3814FF0FF3038BDD9062CD55A0712D499
:1009B000226943F00803A381002ADAD103F42071ED
:1009C000B1F5007FD5D02146284600F0EDFAB4F904
:1009D0000C302269CDE7616B51B104F144029142C0
:1009E00004D0284600F0B0F9B4F90C30002262635C
:1009F00022690021C4E9002123F02403D9E7184625
:100A0000FFF734FEAFE7092243F040032A60A381D9
:100A1000C7E700BF1C000024830730B547D0541E31
:100A2000002A3ED0CAB2034601E0013C39D303F8A4
:100A3000012B9D07F9D1032C2CD9CDB205EB05254F
:100A40000F2C05EB054535D9A4F1100222F00F0C4F
:100A500003F1100EE6444FEA121C1A46C2E9005593
:100A6000C2E9025510327245F8D10CF1010214F0BE
:100A70000C0F03EB021204F00F0C13D0ACF10403C3
:100A800023F003030433134442F8045B9342FBD185
:100A90000CF003042CB1C9B21C4403F8011BA3429F
:100AA000FBD130BD64461346002CF4D1F9E7034670
:100AB0001446C0E71A46A446E0E700BF38B5074D24
:100AC0000022044608462A6018F067FA431C00D04A
:100AD00038BD2B68002BFBD0236038BD1C030024DD
:100AE00038B50C46084D8446114620461A46002368
:100AF0002B60644618F078FA431C00D038BD2B6890
:100B0000002BFBD0236038BD1C03002438B50C46F5
:100B1000084D8446114620461A4600232B60644641
:100B200018F002FA431C00D038BD2B68002BFBD014
:100B3000236038BD1C03002438B5074D002204464D
:100B400008462A6018F0BAF9431C00D038BD2B685B
:100B5000002BFBD0236038BD1C03002438B50C46A5
:100B6000084D8446114620461A4600232B606446F1
:100B700018F0F7F9431C00D038BD2B68002BFBD0D0
:100B8000236038BD1C030024014B1868704700BF68
:100B90001C00002470B50F4B0F4DAB42A3EB0506B4
:100BA00007D0B610002455F8043B01349847A642FC
:100BB000F9D821F0ADFB094D094B5E1BAB424FEA62
:100BC000A60606D0002455F8043B01349847A642F7
:100BD000F9D870BD8C3902088C3902088C390208AA
:100BE00090390208704700BF704700BF704700BFD0
:100BF000704700BF704700BF704700BF01207047BB
:100C000001207047704700BF704700BF002200F00E
:100C10007DBA00BF844641EA000313F003036DD19F
:100C2000403A41D351F8043B40F8043B51F8043BAF
:100C300040F8043B51F8043B40F8043B51F8043BB6
:100C400040F8043B51F8043B40F8043B51F8043BA6
:100C500040F8043B51F8043B40F8043B51F8043B96
:100C600040F8043B51F8043B40F8043B51F8043B86
:100C700040F8043B51F8043B40F8043B51F8043B76
:100C800040F8043B51F8043B40F8043B51F8043B66
:100C900040F8043B51F8043B40F8043B51F8043B56
:100CA00040F8043B403ABDD2303211D351F8043BF6
:100CB00040F8043B51F8043B40F8043B51F8043B36
:100CC00040F8043B51F8043B40F8043B103AEDD2A5
:100CD0000C3205D351F8043B40F8043B043AF9D2F6
:100CE000043208D0D2071CBF11F8013B00F8013BC9
:100CF00001D30B8803806046704700BF082A13D3D6
:100D00008B078DD010F003038AD0C3F10403D21AED
:100D1000DB071CBF11F8013B00F8013B80D331F821
:100D2000023B20F8023B7BE7043AD9D3013A11F8A1
:100D3000013B00F8013BF9D20B7803704B7843700C
:100D40008B78837060467047002950D038B551F8D1
:100D5000043C0C1F002BB8BFE4180546FFF75CFBF2
:100D6000274A13682BB1A3420CD92168601883422B
:100D70002CD0636028461460BDE83840FFF752BBB2
:100D8000A3420FD81A465B68002BF9D1116850189E
:100D9000844217D02CD3636054602846BDE83840A5
:100DA000FFF740BB11685018A04214D020D821682A
:100DB00060188342EFD118685B680844C4E90003F7
:100DC0005460EAE723680B441360E6E718685B6841
:100DD00008442060CDE72068014450188342116028
:100DE000DBD1D3E900040144C2E90014D5E7704720
:100DF0000C232B602846BDE83840FFF713BB00BF2B
:100E0000DC010024B1F90C302DE9F0411E070C463D
:100E100080463DD44A68002A56DDE56A002D34D06C
:100E20000022D8F80060C8F8002013F48052216A2C
:100E300057D101234046A847451C024666D0B4F965
:100E40000C30E56A216A580705D56368D21A636BCE
:100E50000BB1236CD21A00234046A847431C42D052
:100E60000023636023692360A389DF0400D56065E4
:100E7000616BC8F8006041B104F14403994202D0AB
:100E80004046FFF761FF002363630020BDE8F08167
:100E90000E69002EF9D09B070D6808BF4B690E60E4
:100EA00018BF0023AD1B8B600BE02B463246216A36
:100EB000A76A4046B847B0F1000CA5EB0C056644A4
:100EC00006DD002DF1DCE0E70A6C002AA5DCDCE79A
:100ED000B4F90C3043F04003A3814FF0FF30BDE87C
:100EE000F081626DAFE7D8F80010B4F90C301D291D
:100EF000F0D80C4ACA40D507ECD5226922600022FE
:100F00006260DA04B4D50029B1D0B1E7D8F8003076
:100F1000002B94D01D2B01D0162BD9D1C8F800601E
:100F2000B3E700BF0100402038B50B69CBB10C46D8
:100F3000054608B1036ABBB1B4F90C308BB1626EDF
:100F4000D00701D4990512D528462146FFF75AFF4C
:100F5000636EDA07054602D4A3899B050BD52846A4
:100F600038BD0025284638BDFFF780FBE4E7A06DBB
:100F7000FFF742FEE8E7A06DFFF746FEEFE700BF90
:100F8000014618B1044B1868FFF7CEBF034A044965
:100F90000448FFF7BBBB00BF1C0000241000002466
:100FA000290F00082000002470B5B1F90C300C4660
:100FB000990796B007D504F147030122C4E904322A
:100FC000236016B070BDB4F90E100029054629DB68
:100FD0006A4600F073F8002822DB4FF4806128464F
:100FE000019EFFF799F988B3A389206043F080033D
:100FF00006F47046A381B6F5005F4FF48063C4E940
:101000000403DED1B4F90E10284600F06DF8002874
:10101000D7D0A38923F0030343F00103A381D0E7D2
:10102000B4F90C3013F0800F14BF40264FF48066E3
:1010300031462846FFF770F940B1A389206043F09C
:101040008003C4E90406A38116B070BDB4F90C3066
:101050009A05B6D423F0030304F1470243F00203D8
:101060000121C4E90421A3812260AAE770B50C46DE
:10107000B1F90E10002996B015461E460FDB6A46E0
:1010800000F01CF800280ADB019B03F47043A3F571
:101090000053B3FA83F34FF480625B0908E0A2893E
:1010A00012F0800F4FF0000314BF40224FF4806213
:1010B000002033602A6016B070BD00BF70B50C46CA
:1010C000084D03460026204611461C462E6017F0A8
:1010D00070FF431C00D070BD2B68002BFBD0236039
:1010E00070BD00BF1C03002438B5074D0022044624
:1010F00008462A6017F06DFF431C00D038BD2B68EE
:10110000002BFBD0236038BD1C03002470B484077F
:1011100046D04C1E002941D0D5B2034602E0611EE4
:10112000E4B30C4603F8015B9907F8D1032C2ED9E0
:10113000D5B245EA05250F2C45EA054519D92646BD
:1011400003F11001103E0F2E41F8105C41F80C5CC9
:1011500041F8085C41F8045C01F11001F2D8A4F1F7
:10116000100121F00F0104F00F041031032C0B4487
:101170000DD91E4621460439032946F8045BFAD8E6
:10118000211F21F0030104310B4404F003042CB1AE
:10119000D2B21C4403F8012BA342FBD170BC7047B0
:1011A0000C460346C2E70000B0EE407B17EE903AD3
:1011B0001B4A23F0004393421AD91A4A934202D998
:1011C00030EE400B704700B585B0684600F040FC3B
:1011D00000F0030001289DED021B9DED000B10D0D7
:1011E000022809D090B900F043FB05B05DF804FB7C
:1011F0009FED091B00F03CBB00F03AFBB1EE400B49
:10120000F3E700F0CDFBB1EE400BEEE7012000F07C
:10121000C7FBEAE7AFF30080000000000000000019
:10122000FB21E93FFFFFEF7FB0EE407B17EE903AE6
:101230001B4A23F0004393421BD91A4A934202D916
:1012400030EE400B704700B585B0684600F000FCFA
:1012500000F0030001289DED021B9DED000B13D053
:1012600002280BD098B9012000F09AFB05B05DF878
:1012700004FB9FED091B002000F092BB012000F051
:101280008FFBB1EE400BF1E700F0F2FAEEE700F071
:10129000EFFAB1EE400BE9E70000000000000000AB
:1012A000FB21E93FFFFFEF7F08B52DED028BB0EE8C
:1012B000408A00F023FDB4EE488AF1EE10FAF0EE19
:1012C000408A0AD6B0EE480A00F03EF8F7EE007AFF
:1012D000B4EEE70AF1EE10FA04DCB0EE680ABDECF9
:1012E000028B08BDFFF750FCBDEC028B03462122A8
:1012F0001A600248BDE8084000F02EB874390208B0
:1013000000F0F8BD08B52DED028BB0EE408A00F07C
:10131000A9FAB4EE488AF1EE10FA06D6DFED098A92
:10132000B4EEE88AF1EE10FA02D4BDEC028B08BDEF
:10133000FFF72AFC88EEA80ABDEC028B212303608C
:1013400008BD00BF0000000010EE103A23F000437B
:1013500000EE103A704700BF9FED010A704700BFD2
:101360000000C07F08B52DED028BF0EE408AB0EE94
:10137000608A00F033F820B9B0EE480ABDEC028B69
:1013800008BDB0EE480A00F029F820B1F4EEC88A92
:10139000F1EE10FAF0DDB0EE680ABDEC028B08BD8C
:1013A00008B52DED028BF0EE408AB0EE608A00F0B9
:1013B00015F820B9B0EE480ABDEC028B08BDB0EEBE
:1013C000480A00F00BF820B1F4EEC88AF1EE10FAEA
:1013D000F0D5B0EE680ABDEC028B08BD10EE103AF5
:1013E00033F000400ED0A0F50003B3F1FE4F0DD353
:1013F000074B421E9A4207D9A0F1FF40B0FA80F095
:10140000400970470220704703207047042070474E
:10141000FEFF7F000000000030B510EE104AC4F35C
:101420000A53B3F57D7FB7EEC07A83B019D227EEA9
:10143000075BB3F5667F6CD327EE052B25EE021B09
:10144000694B93ED1A3B93ED186B93ED164BA5EE9C
:10145000036BA2EE047BA6EE017BB7EEC70B03B0D5
:1014600030BD40F22E4293425BD85F4991ED086B4C
:1014700027EE066BFDEEC66B91ED0A5B16EE903A19
:1014800003F500031B1613F0020F06EE903A01F16C
:10149000700208BF0A46D807B8EEE66BA6EE457B99
:1014A00027EE076B1BD403F0030301EBC30191ED9F
:1014B000002B92ED1A4B92ED185B92ED163BA6EEC7
:1014C000045B27EE027B27EE064B26EE046BA4EEB0
:1014D000037BA5EE067BB7EEC70B03B030BD92EDE4
:1014E000142B26EE065B92ED127B92ED0E3BA6EEE0
:1014F000027B92ED0C0B92ED104BA6EE030B26EE49
:10150000056BA5EE040BA7EE060BB7EEC00B03B000
:1015100030BD14F0FF4F04BFB7EEC55B8DED015A2F
:10152000DBE7B3F5FF6F3BD2304BC4F3836203EBD1
:10153000820153F82220C4F31603C4F3C25043F4CB
:1015400000038340086A0969A0FB035003FB02F211
:10155000E3FB010202F100518D0F01F04041511AED
:1015600001F014FC224B9FED1E6B05EBD47441EC93
:10157000170B14F0020FA3F1700208BF1346E9071E
:1015800027EE067B27EE076B0FD402EBC40292ED29
:10159000002B93ED1A4B93ED185B93ED163B8EE702
:1015A00003B0BDE8304000F04FB993ED141B26EEB8
:1015B000064B93ED125B93ED0E2BA6EE015B93EDC4
:1015C0000C7B93ED103BA6EE027B26EE046BA4EEA3
:1015D000037BA5EE067BB7EEC70B7EE7AFF300807B
:1015E000182D4454FB21193C382F0208D82E02082C
:1015F000A82F02080000000038B510EE104AC4F30E
:101600000A53B3F57D7FB7EEC07A1ED227EE077B73
:10161000B3F5667F6FD327EE071B694B93ED142B51
:1016200093ED125B93ED0E3BA7EE025B93ED0C6B1B
:1016300093ED104BA7EE036B27EE017BA1EE046B3D
:10164000A5EE076BB7EEC60B38BD40F22E429342B3
:1016500054D85B4991ED086B27EE066BFDEEC66B27
:1016600091ED0A5B16EE903A03F500031B1613F09A
:10167000020F06EE903A01F1700208BF0A46D80741
:10168000B8EEE66BA6EE457B27EE076B1AD503F0A6
:10169000030301EBC30191ED002B92ED1A4B92ED88
:1016A000185B92ED163BA6EE045B27EE027B27EE5D
:1016B000064B26EE046BA4EE037BA5EE067BB7EE8D
:1016C000C70B38BD92ED142B26EE065B92ED127B14
:1016D00092ED0E3BA6EE027B92ED0C0B92ED104BC1
:1016E000A6EE030B26EE056BA5EE040BA7EE060B8C
:1016F000B7EEC00B38BDB7EE000A38BDB3F5FF6FCB
:101700003DD2304BC4F3836203EB820153F82220B5
:10171000C4F31603C4F3C25043F400038340086AC1
:101720000969A0FB035003FB02F2E3FB010202F193
:1017300000518D0F01F04041511A01F027FB224B5F
:101740009FED1D6B05EBD47441EC170B14F0020FE9
:10175000A3F1700208BF1346E90727EE067B27EEC8
:10176000076B10D504F0030402EBC40292ED002BCA
:1017700093ED1A4B93ED185B93ED163B93E7BDE8A1
:10178000384000F061B893ED141B26EE064B93ED44
:10179000125B93ED0E2BA6EE015B93ED0C7B93EDAC
:1017A000103BA6EE027B26EE046BA4EE037BA5EEB7
:1017B000067BB7EEC70B38BD182D4454FB21193CEE
:1017C000382F0208D82E0208A82F020810B52DEDD8
:1017D000028BB0EE408A0446FFF7D6F9B0EE480A15
:1017E000BDEC028B046010BD28B1F1EE407A27EE0B
:1017F000800A2220EAE7F0EE407A27EE800A2220D3
:10180000E4E700BF9FED010AEEE700BF0000001013
:101810009FED010AE8E700BF0000201A9FED010AD2
:10182000E2E700BF000000709FED060AF7EE007AC5
:10183000BFEE007A00284FF0220047FE877A87EE3D
:10184000800AC3E700000000F0EE407A30EE407AF4
:10185000F4EE677AF1EE10FA87EE070A01D621203E
:10186000B4E77047B1EEC00A704700BF0000000047
:1018700010EE903A23F00043B3F1795F2DED028B27
:101880002ED2FDEEC07B17EE903A002B65D020EEF5
:10189000004B9FED358B9FED362B9FED373BA4EE34
:1018A000082B9FED375BA4EE023B9FED376BA4EE58
:1018B000035B9FED377BA4EE056BA4EE067B24EE65
:1018C000077B21EE401BB6EE006BA4EE071BB7EEC4
:1018D000000B94EE061BBDEC028B30EE410B704703
:1018E0009FED218B20EE004B9FED212B9FED223BA6
:1018F000A4EE082B9FED225BA2EE043B9FED226B32
:10190000A3EE045B9FED227BA5EE046B224AA6EEBC
:10191000047B934227EE047BD3D9204A934217D805
:10192000B7EE006B0020A3F5001141EC150B36EE6D
:10193000456B21EE401BB6EE003BA4EE071B94EE78
:10194000035BBDEC028B35EE415B36EE450B704719
:10195000B6EE076BB5EE025BEBE7B7EE000BBDEC46
:10196000028B7047AFF30080D43888BEE9FAA8BD77
:10197000C4B1B4BD9EEE213EAD529C804F7E92BE5E
:101980009015CB19A001FA3E7751C1166CC156BF14
:101990004C5555555555A53F3233D33F0000E93FCF
:1019A00010EE903A23F00043B3F1795F04D2FDEEDC
:1019B000C07B17EE903A5BB320EE007B9FED162BB9
:1019C0009FED173B9FED184BA7EE023B9FED185B79
:1019D000A3EE074B9FED186BA4EE075BA5EE076B1C
:1019E00020EE075B30B99FED164BA7EE064BA4EE39
:1019F000050B70479FED144B26EE456BB6EE003B92
:101A0000A1EE036B96EE071BA5EE041B30EE410B17
:101A1000704700BFAFF300807CD5CF5A3AD9E53D7F
:101A2000EB9C2B8AE6E55ABE7DFEB157E31DC73E0F
:101A3000D561C119A0012ABFA6F810111111813F6B
:101A4000495555555555C5BF495555555555C53F2A
:101A500070B553EC102B9E4923F000458D4288B0A1
:101A6000044669D99B498D421E461BD8002B9FED29
:101A7000887B40F3E98030EE477BA1F51B21A1F57F
:101A8000F0618D4267D09FED845B37EE456B37EE9A
:101A9000467B37EE457B84ED006B84ED027B0120B5
:101AA00008B070BD8C498D4262D98C498D424BD8AB
:101AB00010462A15A2F21642A5EB025141EC170B73
:101AC0009FED774BBDEEC75B08A8B8EEC55B37EE60
:101AD000457B27EE047BBDEEC76B8DED025BB8EE58
:101AE000C66B37EE467B8DED046B27EE047B8DEDE8
:101AF000067B032130ED027BB5EE407BF1EE10FA60
:101B00000B4601F1FF31F5D0754901910221009199
:101B100002A8214600F060FB002EC1DA94ED006BB4
:101B200094ED027BB1EE466BB1EE477B84ED006B2A
:101B300084ED027B4042B3E70020002184ED000BDE
:101B4000C4E902010020ABE730EE407B80ED027B70
:101B500080ED007BF6E79FED545B9FED556B37EE14
:101B6000467B37EE456B37EE467B37EE457B92E79B
:101B700000F0BCF8B6EE007B9FED4F5BA0EE057B5E
:101B8000FDEEC77B9FED423B17EE900A9FED426B47
:101B90001F28B8EEE75BB1EE454BA5EE430B25EEF3
:101BA000067B1CDC4F4B421E53F82230AB4216D052
:101BB00030EE476B30EE460B002E30EE470B84EDD7
:101BC000006B84ED020BBFF66BAFB1EE466BB1EE6E
:101BD000400B84ED006B84ED020B404260E730EE79
:101BE000476B16EE903AC3F30A53C3EB1553102B11
:101BF0004FEA2552DEDDB0EE403B9FED2D6B9FEDB1
:101C00002A2BA4EE063B30EE437BA4EE067B95EE3A
:101C1000027B33EE476B16EE903AC3F30A53D21AA7
:101C2000312A0EDDB0EE430B9FED256B9FED262B89
:101C3000A4EE060B33EE407BA4EE067B95EE027B12
:101C4000B6E7B0EE430BB5E7274930EE077B8D4290
:101C50000ED09FED115B37EE056B37EE467B37EE0E
:101C6000057B84ED006B84ED027B4FF0FF3017E7BE
:101C70009FED0D5B9FED0E6B37EE067B37EE056B30
:101C800037EE467B37EE057BEBE700BFAFF3008016
:101C900000004054FB21F93F3163621A61B4D03D2A
:101CA00000000000000070417370032E8A19A33BEE
:101CB0000000601A61B4D03D83C8C96D305FE43F55
:101CC0000000002E8A19A33BC14920259A837B3945
:101CD000FB21E93F7BD90240FB213941FFFFEF7F28
:101CE0009830020818300208FB21F93F51EC100B24
:101CF000024621F0004343EC102B704738B510EE3C
:101D0000105A25F00044B4F17E5F2DED048BF0EE07
:101D1000407A7FD077D8B4F17C5F0ED2B4F1485FBF
:101D200080F092809FED637A30EE077AF7EE006ADA
:101D3000B4EEE67AF1EE10FA62DCB0EE670AFFF775
:101D400003FBF7EE007A37EEC08AB6EE007A28EE93
:101D5000078ADFED596A9FED597A9FED596A9FED29
:101D6000595ADFED595ADFED598AE8EE076A9FEDBF
:101D7000587AA8EE067A9FED576AA6EE885AA7EE23
:101D8000086A9FED557ADFED556AE5EE085AA6EE32
:101D9000087AE5EE886AE7EE087AE6EE888AB0EE21
:101DA000480AB0EE679AFFF75DFD4D4B9C4268EE26
:101DB000888A3AD810EE103A6FF30B0306EE903A89
:101DC000A6EEE68A70EE267A88EE895AC8EE274A91
:101DD0009FED447ADFED447AB0EE006AA4EEC67A55
:101DE00030EE000AF0EE675A90EE057AE6EEC65A3B
:101DF00037EE657A37EEC70A002D01DCB1EE400AF6
:101E0000BDEC048B38BDBDEC048B70EE407A87EEE0
:101E1000A70A38BDBDEC048B9FED320A9FED337AE3
:101E200027EE800AA7EE870A38BD88EE896A9FED03
:101E3000307ADFED2E7AA0EE060AF0EE006AA0EE10
:101E4000267A37EEC70AD7E720EE007ADFED1B6A65
:101E50009FED196ADFED1B5A9FED195ADFED1A4A03
:101E6000A7EE266ABDEC048BE6EE075ADFED186A92
:101E70009FED186AE7EE056AE5EE874AA6EE876AE7
:101E80009FED165ADFED145ADFED106AA4EE875A63
:101E9000E6EE075AE5EE076AB7EE006AA5EE876A36
:101EA00026EE877AC7EE066AE0EE267AB0EE670A7B
:101EB00038BD00BFCAF24971047F4F3A08EF1138AC
:101EC0002EC69D3D461124BDA80A4E3EABAA2A3E11
:101ED000613330BF2D57014039D119C090B0A6BE33
:101EE0009999793F2EBD3BB3DB0F493FDB0FC93FCB
:101EF0002EBD3B3310B582B0CDED010A019B23F01E
:101F00000042B2F1FF4FF0EE407A30D810EE100AE6
:101F100020F00041B1F1FF4F29D8B3F17E5F40D0EE
:101F20009C1704F0020444EAD07431B372B3B2F1E6
:101F3000FF4F3ED0B1F1FF4F28D0891AB1F1F45FC5
:101F40004FEAE15232DA002B40DA3C323EDA9FEDC2
:101F5000330A012C4CD0022C41D064B19FED307A71
:101F6000DFED307A30EE070A30EE670A03E09DEDD0
:101F7000017A37EE270A02B010BD022C0ED09FED79
:101F80002A7A032C07FE000A02B010BD9FED270A33
:101F9000DFED277A002827FE800AECE79FED210A73
:101FA000E9E702B0BDE8104000F048B89FED200A14
:101FB000CFE7B1F1FF4F04F1FF3420D0022C26D837
:101FC0001C4B03EB840393ED030AD4E79DED017AE8
:101FD00087EE870AFFF7B8F900F030F8B9E79FED10
:101FE000107ADFED107A30EE070A37EEC00AC2E74A
:101FF00010EE103A03F1004300EE103ABBE7022C5A
:1020000008D80C4B03EB840393ED000AB3E79FED74
:10201000030AB0E79FED080AADE700BF000000002B
:102020002EBDBB33DB0F4940DB0F49C0DB0FC9BFFF
:10203000DB0FC93FA0310208DB0F493F38B510EE76
:10204000105A25F00044B4F1A14FF0EE407A0AD3C3
:10205000B4F1FF4F55D8DFED4E7A9FED4E7A002D4B
:1020600037FE270A38BD4C4B9C4259D8B4F1445F27
:102070004AD34FF0FF3227EEA76A9FED485A9FEDF3
:10208000487ADFED485ADFED484A66EE066A531C8F
:10209000A6EE857AE6EEA54A9FED445ADFED445A56
:1020A000A7EE265AE4EEA65A9FED427ADFED424AA9
:1020B000A5EE267AE5EEA64A9FED405ADFED405A9E
:1020C000A7EE265A9FED3F7AA4EEA67AE5EE265AB1
:1020D00027EE267AA5EE867A27EE877A35D03A4B18
:1020E00003EB820393ED046AD3ED006A37EE467A80
:1020F000002D37EE677A36EEC70AB3DAB1EE400A42
:1021000038BD30EE000A38BD9FED307A30EE077AE8
:10211000F7EE006AB4EEE67AF1EE10FAA9DD38BD0A
:10212000FFF712F92A4B9C4212D8A3F5D0039C4228
:1021300023D8F0EE007ABFEE007AA0EE277A0022D4
:1021400030EE270AC7EE007A95E737EEC70A38BDAA
:10215000204B9C420BD8F7EE087AB7EE007AA0EE3F
:10216000277A022230EE670AC0EE077A83E7BFEED5
:10217000007AC7EE007A03227DE7F7EE007A30EEB0
:10218000677A30EE270A0122C7EE007A73E700BFB4
:10219000DB0FC9BFDB0FC93FFFFFDF3ED769853CBF
:1021A00059DA4B3D21A215BD6BF16EBD356B883DF3
:1021B00095879DBD6E2EBA3D388EE3BD2549123EF2
:1021C000ABAAAA3ECDCC4CBEB8310208CAF24971C6
:1021D000FFFF973FFFFF1B402DE9F04F2DED088BD0
:1021E000ADF5137D1C4603938146A34BA49812F1D1
:1021F000140F53F8205004F1FF37C0F248829F4873
:10220000D31E80FB0340DB17C3EBA0030293013313
:10221000A3EB8303DB001A44029BEC19A3EB070337
:102220001CD401349FED8E6BA59E1C441AA89446C5
:102230000AE056F8232007EE902A0133B8EEE77B38
:10224000A342A0EC027B08D0002BF2DAB0EE467B72
:102250000133A342A0EC027BF6D16246002DC0F20E
:10226000C482039B1AA800EBC3060DF5D47C4FEA89
:10227000C3083C4605EB030E09EBC300002F9FED9E
:10228000787B09DBB2464B46B3EC025B3AED026B5E
:102290008342A5EE067BF7D101347445ACEC027B9A
:1022A00006F10806EAD10DF1180A0AEB85039FED45
:1022B0006E9B9FED6F8B043B09EB080404930AEBC4
:1022C0008508AB466AAE00951046059192AB03EBCC
:1022D000CB03BBF1000F13ED280B4FEACB0315DD49
:1022E0003344524620EE097B33ED025BB0EE406B87
:1022F000BDEEC77BB342B8EEC77BA7EE486BBDEE21
:10230000C66B37EE050BA2EC016AEBD1019000F031
:102310009FFAB4EE007BB0EE40AB20EE070B00F06E
:102320001BFBB2EE007B0198A0EE47ABBDEECABB33
:102330000028B8EECB7B3AEE47AB6EDD0BF1FF3EEB
:10234000C0F118035AF82E2042FA03FC0CFA03F3EA
:10235000D21AC0F117011BEE103A42FA01F563449C
:10236000002D4AF82E200BEE103A00F35E81B5EEF8
:1023700040ABF1EE10FA40F0B180009B9B450BDDC5
:102380000AEB8B03002253F8041D434542EA010285
:10239000F9D1002A40F06381009B013B5AF82330B9
:1023A000002B40F05781049B012153F8042D01318B
:1023B000002AFAD00BF1010359449C46029D039A6E
:1023C00003EB050E0EF1804EA59D5A440EF1FF3E23
:1023D00006EBC30B1AAB05EB8E0E03EBC2059EEDAD
:1023E000017AB8EEC77B002FA5EC027B0EF1040E3C
:1023F0009FED1B7B09DB2A464B46B3EC025B32EDBB
:10240000026BA342A5EE067BF7D10CF1010C8C45C3
:10241000ABEC027BE3DD8B4658E740F0FD800BF12F
:10242000FF335AF82350ED15002DA0DD1BEE103AB6
:10243000BBF1000F03F101030BEE103A40F3D98119
:1024400052464FF0000C52F8041B002900F0DE80C9
:10245000C1F1807142F8041C6FF07F4114E000BFAD
:102460000000000000000000000000000000703EBE
:102470000000000000007041D8310208ABAAAA2A6F
:102480001368CB1A42F8043B0CF1010CE345F7DC6E
:10249000012100280CDD012800F0D380022807D19B
:1024A0000BF1FF325AF82230C3F315034AF82230F9
:1024B000022D7FF45CAFB7EE000B30EE4AAB002983
:1024C0003FF455AF019000F0C3F93AEE40ABB5EEE2
:1024D00040ABF1EE10FA01983FF44FAF0246059978
:1024E000B0EE4A0B404202950191009D009200F02F
:1024F000AFF99FEDC95BB0EE407BB4EEC50BF1EEDA
:1025000010FADDE90021029BC0F238819FEDC46B17
:1025100020EE066BBDEEC66B0BF10104B8EEC64BA8
:10252000A4EE457BBDEEC77B183217EE100A4AF8C1
:102530002B0016EE100A4AF82400B7EE000B1046E6
:10254000CDE9003100F084F9002CDDE90031C0F262
:102550003F819FEDB35B661C6AAF0AEB8602F00019
:1025600007EBC60632ED017A5245B8EEC77B27EE7F
:10257000007B20EE050B26ED027BF3D16AAE0DF554
:102580008478A0F10802B718C646A44600269A46E9
:10259000002D9FEDA57B0EDBA54BB946002201E087
:1025A000B24208DCB3EC025BB9EC026B013295423B
:1025B000A5EE067BF4DA0CF1FF3CBCF1FF3FAEEC7C
:1025C000027B06F10106A7F10807E1D1A49A022ACD
:1025D000534600F38780002A70DC0DD19FED927B7B
:1025E000404430ED026B404537EE067BF9D1002BBD
:1025F00040F0EB8081ED007B1BEE103A03F007000A
:102600000DF5137DBDEC088BBDE8F08F0CF1010CCE
:10261000E3453FF718AF3CE7B6EE007BB4EEC7AB3F
:10262000F1EE10FA38DA0025A1E60133BBF1000F14
:102630000BEE103AD8BF00213FF702AF01287FF41C
:102640002DAF0BF1FF325AF82230C3F316034AF8CC
:1026500022302DE70BF101039C461946AEE60BF143
:10266000FF34A0F118025AF8240005992B46009D6A
:1026700000287FF462AF0BF1804001380AEB800044
:1026800050F8046D013C183A002EF9D055E70020AF
:102690006FF017030290BEE51BEE103ABBF1000F7E
:1026A00003F101030BEE103AC8BF02253FF7C8AE95
:1026B000B7EE007B37EE4AAB022558E69FED5A6B2A
:1026C000404430ED027B404536EE076BF9D137EEE2
:1026D000467B002B67D0B1EE466B81ED006B002C82
:1026E00064D16DE0A49A032A86D1002C00F08F807B
:1026F00008EBC40696ED006BE5003246304630ED3F
:10270000027BB0EE465B404536EE076B37EE467B0C
:1027100080ED006B37EE057B80ED027BEFD1012C65
:1027200075D096ED006B08F1080032ED027BB0EE3B
:10273000465B904236EE076B37EE467B82ED006BD0
:1027400037EE057B82ED027BEFD19FED377B05F104
:102750000802424408F1100032ED026B904237EE5D
:10276000067BF9D198ED005B98ED026B73B981EDB2
:10277000005B81ED026B81ED047B3DE7BDEEC07B2C
:102780005C4617EE100A4AF82B00D6E6B1EE455B20
:10279000B1EE466BB1EE477B81ED005B81ED026BE4
:1027A00081ED047B28E781ED006B5CB144A8012238
:1027B000B0EC026B0132944237EE067BF8DA0BB1D3
:1027C000B1EE477B81ED027B16E7B1EE477B11E767
:1027D000A49A022A15DC002A2CDC7FF40DAF9FEDB1
:1027E000127B002B3FF406AFEFE7039B4FEAC308D1
:1027F00059E5022D7FF4BBADB7EE007B37EE4AAB57
:10280000B5E5A49A032A7FF4F7AE0DF584789FED21
:10281000067BA7E7AFF300800000000000007041D6
:10282000000000000000703E0000000000000000FA
:10283000E83102089DED427B2BB100224FF00043AE
:10284000C1E90023BCE700220023C1E90023B9E766
:1028500053EC102B10B4C3F30A54194664BB23F095
:102860000041114325D09FED2E7B394920EE077B97
:10287000884253EC172B3FDBC3F30A541946363C0E
:102880004CF2503C604520DC204440F2FE74A042F3
:102890001BDC002827DC10F1350F34DB36306FF3FA
:1028A0001E519FED217B41EA005343EC102B20EE9B
:1028B000070B5DF8044B704740F2FF7C6445DFD1A5
:1028C00030EE000B5DF8044B70479FED197B9FEDD8
:1028D0001A5BB0EE470B002B5DF8044B27FE057B1F
:1028E00027EE000B70476FF31E5141EA005343EC93
:1028F000102B5DF8044B70479FED110B5DF8044BF6
:1029000027EE000B70479FED0E7B9FED0F5BB0EE47
:10291000470B002B27FE057B27EE000BC9E700BF06
:102920000000000000005043000000000000903C48
:102930009C7500883CE4377E9C7500883CE437FE3B
:1029400059F3F8C21F6EA50159F3F8C21F6EA58195
:10295000B03CFFFF0000000000B583B08DED000B20
:1029600001990098C1F30A52A2F2FF33132B33DC12
:10297000002B23DB3C4A1A4101EA020E5EEA000EFC
:102980008C462ED09FED367B9DED006B36EE077B9F
:10299000B5EEC07BF1EE10FA09DD002904DA4FF440
:1029A000801141FA03F39C442CEA020100200B46FB
:1029B000024643EC102B03B05DF804FB9FED287B2F
:1029C00030EE077BB5EEC07BF1EE10FAEFDD0029AB
:1029D0002ADB00200146EAE7332B07DDB3F5806FE1
:1029E0001DD09DED000B03B05DF804FBA2F2134275
:1029F0004FF0FF3C2CFA02F20242F2D09FED187B1E
:102A00009DED006B36EE077BB5EEC07BF1EE10FA64
:102A1000CDDD002984460EDB2CEA0200C7E79DEDE0
:102A2000007B37EE070BDEE721F0004108430FD1B2
:102A30004FF00041BBE7142B0DD04FF0010EC3F156
:102A400034030EFA03F39C44844538BF7144E3E732
:102A500006490020ABE70131DEE700BFAFF300809D
:102A60009C7500883CE4377EFFFF0F000000F0BF3C
:102A700081F0004102E000BF83F0004330B54FEA2F
:102A800041044FEA430594EA050F08BF90EA020F9C
:102A90001FBF54EA000C55EA020C7FEA645C7FEA2F
:102AA000655C00F0E2804FEA5454D4EB5555B8BF52
:102AB0006D420CDD2C4480EA020281EA030382EAC3
:102AC000000083EA010180EA020281EA0303362D55
:102AD00088BF30BD11F0004F4FEA01314FF4801C28
:102AE0004CEA113102D0404261EB410113F0004F3A
:102AF0004FEA03334CEA133302D0524263EB4303F1
:102B000094EA050F00F0A780A4F10104D5F1200E8E
:102B10000DDB02FA0EFC22FA05F2801841F10001E9
:102B200003FA0EF2801843FA05F359410EE0A5F1BD
:102B300020050EF1200E012A03FA0EFC28BF4CF0EE
:102B4000020C43FA05F3C01851EBE37101F00045A4
:102B500007D54FF0000EDCF1000C7EEB00006EEBB1
:102B60000101B1F5801F1BD3B1F5001F0CD349083B
:102B70005FEA30004FEA3C0C04F101044FEA445292
:102B800012F5800F80F09A80BCF1004F08BF5FEA19
:102B9000500C50F1000041EB045141EA050130BDF9
:102BA0005FEA4C0C404141EB0101013C28BFB1F50B
:102BB000801FE9D291F0000F04BF01460020B1FA56
:102BC00081F308BF2033A3F10B03B3F120020CDA29
:102BD0000C3208DD02F1140CC2F10C0201FA0CF007
:102BE00021FA02F10CE002F11402D8BFC2F1200C6C
:102BF00001FA02F120FA0CFCDCBF41EA0C01904022
:102C0000E41AA2BF01EB0451294330BD6FEA04046A
:102C10001F3C1CDA0C340EDC04F11404C4F1200255
:102C200020FA04F001FA02F340EA030021FA04F367
:102C300045EA030130BDC4F10C04C4F1200220FABE
:102C400002F001FA04F340EA0300294630BD21FAFC
:102C500004F0294630BD94F0000F83F4801306BFC2
:102C600081F480110134013D4EE77FEA645C18BFB6
:102C70007FEA655C29D094EA050F08BF90EA020F4D
:102C800005D054EA000C04BF1946104630BD91EA45
:102C9000030F1EBF0021002030BD5FEA545C05D148
:102CA0004000494128BF41F0004130BD14F5800487
:102CB0003CBF01F5801130BD01F0004545F0FE41FB
:102CC00041F470014FF0000030BD7FEA645C1ABF30
:102CD000194610467FEA655C1CBF0B46024650EA67
:102CE000013406BF52EA033591EA030F41F4002193
:102CF00030BD00BF90F0000F04BF0021704730B519
:102D00004FF4806404F132044FF000054FF00001ED
:102D100050E700BF90F0000F04BF0021704730B5AE
:102D20004FF4806404F1320410F0004548BF404283
:102D30004FF000013EE700BF42004FEAE2014FEAD8
:102D400031014FEA02701FBF12F07F4393F07F4FB3
:102D500081F06051704732F07F4208BF704793F0B6
:102D60007F4F04BF41F40021704730B54FF46074C9
:102D700001F0004521F000411CE700BF50EA0102CC
:102D800008BF704730B54FF000050AE050EA010275
:102D900008BF704730B511F0004502D5404261EBE5
:102DA00041014FF4806404F132045FEA915C3FF426
:102DB000D8AE4FF003025FEADC0C18BF03325FEAC3
:102DC000DC0C18BF033202EBDC02C2F1200300FA74
:102DD00003FC20FA02F001FA03FE40EA0E0021FA99
:102DE00002F11444BDE600BF80F0004002E000BFE5
:102DF00081F0004142001FBF5FEA410392EA030FE6
:102E00007FEA226C7FEA236C6AD04FEA1262D2EB2F
:102E10001363C1BFD218414048404140B8BF5B4234
:102E2000192B88BF704710F0004F40F4000020F0CD
:102E30007F4018BF404211F0004F41F4000121F0E3
:102E40007F4118BF494292EA030F3FD0A2F101022D
:102E500041FA03FC10EB0C00C3F1200301FA03F16B
:102E600000F0004302D5494260EB4000B0F5000F8E
:102E700013D3B0F1807F06D340084FEA310102F14D
:102E80000102FE2A51D2B1F1004F40EBC25008BFFF
:102E900020F0010040EA03007047490040EB0000C9
:102EA000013A28BFB0F5000FEDD2B0FA80FCACF1CA
:102EB000080CB2EB0C0200FA0CF0AABF00EBC250F7
:102EC00052421843BCBFD0401843704792F0000FE5
:102ED00081F4000106BF80F400000132013BB5E738
:102EE0004FEA41037FEA226C18BF7FEA236C21D0AE
:102EF00092EA030F04D092F0000F08BF0846704713
:102F000090EA010F1CBF0020704712F07F4F04D1E0
:102F1000400028BF40F00040704712F100723CBFF3
:102F200000F50000704700F0004343F0FE4040F41D
:102F3000000070477FEA226216BF08467FEA2363DB
:102F40000146420206BF5FEA412390EA010F40F4C6
:102F5000800070474FF0000304E000BF10F0004312
:102F600048BF40425FEA000C08BF704743F09643F9
:102F700001464FF000001CE050EA010208BF704714
:102F80004FF000030AE000BF50EA010208BF70479B
:102F900011F0004302D5404261EB41015FEA010CB0
:102FA00002BF84460146002043F0B64308BFA3F1A8
:102FB0008053A3F50003BCFA8CF2083AA3EBC2538A
:102FC00010DB01FA02FC634400FA02FCC2F12002A9
:102FD000BCF1004F20FA02F243EB020008BF20F0E0
:102FE0000100704702F1200201FA02FCC2F1200246
:102FF00050EA4C0021FA02F243EB020008BF20EA3B
:10300000DC70704753B94AB9002908BF00281CBFBB
:103010004FF0FF314FF0FF3000F00CB8ADF1080C6D
:103020006DE904CE1FF024F8DDF804E0DDE90223A9
:1030300004B07047704700BF10B5054C237833B912
:10304000044B13B10448AFF300800123237010BD7B
:103050003D030024000000001023020808B5034BC4
:103060001BB103490348AFF3008008BD0000000016
:10307000400300241023020880B500AF00F0CCF814
:1030800009F010FF00F046F815F0BCFF16F084F8C8
:1030900016F012F916F074F916F086FD16F096FF88
:1030A00017F064F817F086F816F0D6FD17F090F9CF
:1030B00017F0DEF917F014FB16F0C8F916F0FEFB56
:1030C00000F02CF917F06CFA17F0BAFA17F01CFAA6
:1030D00016F0D6FF0E4810F08CFF19F0C1FE1AF062
:1030E000CBFE1CF09DF91BF0BBFC1EF059FF1CF041
:1030F0009BFE1DF0EDFE1EF0D3FA054810F079FF9F
:1031000015F06EF913F002F815F08EF900BFFDE727
:103110005C03002480B59CB000AF07F124034C226F
:1031200000211846FDF778FC3B1D2022002118469F
:10313000FDF772FC022009F0E1FC00233B60354BF7
:103140009B69344A23F440439361324B9B6903F4F7
:1031500040433B603B6800BF2E4B9B6903F4005328
:10316000B3F5005FF8D12B237B624FF48033BB6251
:1031700001233B6340237B630123BB630123FB6388
:103180000223BB640223FB6402233B6528237B6587
:103190000123BB650423FB6502233B660C237B668E
:1031A0000023BB660023FB6607F12403184603F0E7
:1031B000D5FD0346002B01D000F0AAF83F237B6029
:1031C0000323BB600023FB6008233B6140237B613A
:1031D0004023BB614FF48063FB6140233B623B1D96
:1031E0000321184604F094F90346002B01D000F0A7
:1031F0008FF84FF480220021002004F03FFB4FF4B1
:1032000080220021012004F039FB00BF7037BD4649
:1032100080BD00BF0048025880B584B000AF3B4677
:1032200000221A605A609A60DA6009F0C3FD012337
:103230003B7000237B704FF000637B6013233B7275
:1032400000237B720123BB720523FB7200233B73B7
:1032500000237B730123BB730023FB733B4618469B
:1032600009F0E0FD01237B704FF000537B601A23CF
:103270003B72EE237B720323FB720023BB733B463E
:10328000184609F0CFFD02237B703B46184609F033
:10329000C9FD03237B703B46184609F0C3FD042398
:1032A0007B703B46184609F0BDFD042009F09AFDED
:1032B00000BF1037BD4680BD80B582B000AF7860DA
:1032C0007B681B680F4A934202D109F027FE15E084
:1032D0007B681B680C4A934210D11BF01DFC0B4B02
:1032E0001B78042B04D91EF077F8084B00221A70C3
:1032F000064B1B780133DAB2044B1A7000BF083753
:10330000BD4680BD00E00040001C00405803002482
:1033100080B400AF72B600BF00BFFDE780B500AF5C
:103320000B4B0C4A1A600A4B00225A60084B40F6BD
:10333000FF72DA60064B40F6FF729A60044810F0A4
:1033400007FE0346002B01D0FFF7E2FF00BF80BD60
:103350005C0300240048005880B400AF00BFFDE7C4
:1033600080B400AF00BFFDE780B400AF00BFFDE751
:1033700080B400AF00BFFDE780B400AF00BFFDE741
:1033800080B400AF00BFBD465DF8047B704700000D
:1033900080B500AF024808F09FF800BF80BD00BFB5
:1033A000F86C002480B500AF024808F095F800BF23
:1033B00080BD00BF706D002480B500AF024808F0EA
:1033C0008BF800BF80BD00BF9072002480B500AFB5
:1033D000024808F081F800BF80BD00BF08730024D8
:1033E00080B500AF024808F077F800BF80BD00BF8D
:1033F0008073002480B500AF024808F06DF800BF6C
:1034000080BD00BFC876002480B500AF024808F038
:1034100063F800BF80BD00BF4077002480B500AFD7
:1034200002480AF05DFB00BF80BD00BFA869002410
:1034300080B500AF02480AF053FB00BF80BD00BF5B
:10344000486A002480B500AF02480AF049FB00BF7B
:1034500080BD00BFA869002480B500AF02480AF013
:103460003FFB00BF80BD00BF486A002480B500AFAD
:1034700002480CF02FFD00BF80BD00BFE86B0024A8
:1034800080B500AF02480EF091FC00BF80BD00BFC8
:103490004070002480B500AF02480EF087FC00BFEA
:1034A00080BD00BFD470002480B500AF02480EF08C
:1034B0007DFC00BF80BD00BF6871002480B500AFF7
:1034C00002480DF0D9FA00BF80BD00BF346E002461
:1034D00080B500AF02480DF0CFFA00BF80BD00BF3D
:1034E000806E002480B500AF02480DF0C5FA00BF21
:1034F00080BD00BFCC6E002480B500AF024807F04D
:10350000EBFF00BF80BD00BFD875002480B500AFC1
:1035100002480EF04BFC00BF80BD00BF186F0024B6
:1035200080B500AF024807F0D7FF00BF80BD00BFE5
:103530005076002480B500AF024807F0CDFF00BFF1
:1035400080BD00BFE874002480B500AF024807F0DA
:10355000C3FF00BF80BD00BF6075002480B500AF11
:10356000024807F0B9FF00BF80BD00BFF873002418
:1035700080B500AF024807F0AFFF00BF80BD00BFBD
:103580007074002480B500AF024800F030FF00BF27
:1035900080BD00BF2C19002480B500AF02480EF09A
:1035A00005FC00BF80BD00BFAC6F002480B500AF3C
:1035B00002480EF0FBFB00BF80BD00BFFC71002481
:1035C00080B500AF02480AF08BFA00BF80BD00BF93
:1035D000E86A002480B500AF02480AF081FA00BF13
:1035E00080BD00BFE86A002480B500AF02480DF03E
:1035F00043FA00BF80BD00BF6C03002480B582B0D9
:1036000000AF0C4BD3F8F4300A4A43F00203C2F87F
:10361000F430084BD3F8F43003F002037B607B688E
:1036200000220F216FF0010009F08EFB00BF083768
:10363000BD4680BD0044025880B58EB000AF7860B2
:103640007B680F2B44D800227968A12009F07CFB0D
:10365000A12009F093FB244A7B681360234BD3F825
:10366000EC30224A43F08073C2F8EC301F4BD3F8A1
:10367000EC3003F08073BB60BB6807F10C0207F10C
:1036800010031146184604F039FB04F021FB0346F1
:103690005B007B637B6B164AA2FB03239B0C013B05
:1036A0003B63144B144A1A60124B40F2E732DA6063
:1036B000104A3B6B53600F4B00221A610D4B0022E6
:1036C0009A600C480CF009FF0346002B07D101E07B
:1036D000012305E007480CF0D5FF034600E0012375
:1036E00018463837BD4680BDD40000240044025837
:1036F00083DE1B436C03002400E0004080B500AF74
:1037000001221349134810F0FDFC0346002B01D0A1
:10371000FFF7FEFD10490F4810F024FD0346002B73
:1037200001D0FFF7F5FD0D490A4812F017FC0346DA
:10373000002B01D0FFF7ECFD064810F049FD0346D1
:10374000002B01D0FFF7E4FD09F012FA00BF80BDA5
:103750006C000024B8030024F0000024C000002402
:1037600080B483B000AF03463960FB713B6812221E
:103770001A80034B18460C37BD465DF8047B704732
:103780008C00002480B483B000AF03463960FB7125
:103790003B6804221A80034B18460C37BD465DF87F
:1037A000047B7047A000002480B582B000AF0346C0
:1037B0003960FB71FB79002B05D13A68074908484D
:1037C00011F0E0FE04E03A680449054811F0DAFE21
:1037D000024B18460837BD4680BD00BF9406002442
:1037E000D02D020880B582B000AF03463960FB716E
:1037F0003A680449044811F0C5FE024B18460837E0
:10380000BD4680BD94060024E82D020880B582B034
:1038100000AF03463960FB713B681A221A8000F042
:1038200043F8024B18460837BD4680BDA40000246B
:1038300080B582B000AF03463960FB71FB79002B85
:1038400005D13A680749084811F09CFE04E03A683F
:103850000449054811F096FE024B18460837BD464C
:1038600080BD00BF94060024FC2D020880B582B004
:1038700000AF03463960FB71FB79002B05D13A6834
:103880000749084811F07EFE04E03A6804490548FB
:1038900011F078FE024B18460837BD4680BD00BFC8
:1038A00094060024082E020880B584B000AF0F4BA8
:1038B0001B68FB600E4B1B68BB600E4B1B687B607C
:1038C000FA687B681344FB60FB68002B09D0082270
:1038D0000949F86800F014F804220849B86800F0B3
:1038E0000FF800BF1037BD4680BD00BF00E8F11FD4
:1038F00004E8F11F08E8F11FA6000024B600002428
:1039000080B487B000AFF860B9601346FB71002344
:10391000FB750023FB7527E0FB681B0F092B0BD8F9
:10392000FB681B0FDAB2FB7D5B001946BB680B44DA
:103930003032D2B21A700AE0FB681B0FDAB2FB7D9C
:103940005B001946BB680B443732D2B21A70FB6871
:103950001B01FB60FB7D5B000133BA68134400224E
:103960001A70FB7D0133FB75FA7DFB799A42D3D344
:1039700000BF00BF1C37BD465DF8047B70470000E8
:1039800080B500AF00220849084812F001FB084941
:10399000064812F01FFB80220649074818F0AAFECD
:1039A0000023184680BD00BF2C110024B80300245A
:1039B0002C090024940800241409002480B400AFCA
:1039C00000231846BD465DF8047B704780B483B081
:1039D00000AF03463960FB711346BB80FB79232B94
:1039E0004AD801A252F823F0793A0008793A00083F
:1039F000793A0008793A0008793A0008793A0008DB
:103A0000793A0008793A0008793A0008793A0008CA
:103A1000793A0008793A0008793A0008793A0008BA
:103A2000793A0008793A0008793A0008793A0008AA
:103A3000793A0008793A0008793A0008793A00089A
:103A4000793A0008793A0008793A0008793A00088A
:103A5000793A0008793A0008793A0008793A00087A
:103A6000793A0008793A0008793A0008793A00086A
:103A7000793A0008793A000800BF002318460C374D
:103A8000BD465DF8047B704780B582B000AF7860BA
:103A900039603B681B689BB2194678681DF062FC70
:103AA0007968054812F096FA034812F0F1FA0023FB
:103AB00018460837BD4680BDB803002480B584B0E1
:103AC00000AF78600B467B800023FB730D4BD3F86F
:103AD000BC32BB60BB68D3F81432002B01D0012389
:103AE0000BE07B881A467968064812F051FA0548BF
:103AF00012F08EFA0346FB73FB7B18461037BD4667
:103B000080BD00BFB803002480B598B000AFF86056
:103B1000B9601346FB71002387F85F300C4BDB68FC
:103B2000002B0FD007F1140340221946084818F063
:103B3000B5FEB865BB6D9AB207F11403114618467D
:103B4000FFF7BCFF97F95F3018466037BD4680BD70
:103B50001409002480B5B2B000AF786007F11003FB
:103B6000B82200211846FCF757FF7B681B681A4AE9
:103B700093422CD14FF480224FF00003C7E9042375
:103B80004FF44013C7F8943007F11003184604F0BF
:103B9000F7F80346002B01D0FFF7BAFB08F0E8FF67
:103BA0000E4BD3F8D8300D4A43F00073C2F8D8302A
:103BB0000A4BD3F8D83003F00073FB60FB68002297
:103BC00005214D2009F0C0F84D2009F0D7F800BFBD
:103BD000C837BD4680BD00BF000004400044025805
:103BE00080B582B000AF78607B68D3F8E0247B6852
:103BF00003F29C431946104610F037FB00BF08370C
:103C0000BD4680BD80B582B000AF78600B46FB70CA
:103C10007B68D3F8E004FA7879681346DB00134434
:103C20009B000B4403F518731A68FB78194610F0D3
:103C300071FB00BF0837BD4680BD80B582B000AFC4
:103C400078600B46FB707B68D3F8E004FA787968FB
:103C50001346DB0013449B000B4420331A68FB78A7
:103C6000194610F00AFC00BF0837BD4680BD80B57C
:103C700082B000AF78607B68D3F8E034184610F06B
:103C800044FD00BF0837BD4680BD80B584B000AF9D
:103C900078600123FB737B68DB79002B02D1002362
:103CA000FB7308E07B68DB79022B02D10123FB73F5
:103CB00001E0FFF72DFB7B68D3F8E034FA7B114677
:103CC000184610F0DEFC7B68D3F8E034184610F09C
:103CD00086FC00BF1037BD4680BD000080B582B0B5
:103CE00000AF78607B68D3F8E034184610F0D9FC58
:103CF0007B681B6803F560631B687A68126802F5CD
:103D0000606243F0010313607B68DB7A002B05D00F
:103D1000044B1B69034A43F00603136100BF0837D5
:103D2000BD4680BD00ED00E080B582B000AF786098
:103D30007B68D3F8E034184610F0CFFC00BF08379A
:103D4000BD4680BD80B582B000AF78600B46FB7089
:103D50007B68D3F8E034FA781146184610F027FD56
:103D600000BF0837BD4680BD80B582B000AF786027
:103D70000B46FB707B68D3F8E034FA78114618469E
:103D800010F0E3FC00BF0837BD4680BD80B582B0AF
:103D900000AF78607B68D3F8E034184610F039FD46
:103DA00000BF0837BD4680BD80B582B000AF7860E7
:103DB0007B68D3F8E034184610F036FD00BF0837B2
:103DC000BD4680BD80B582B000AF78607B681B784F
:103DD000012B40D1224A7B68C2F8E0347B68204A3C
:103DE000C3F8C8221E4B1F4A1A601D4B09221A71C4
:103DF0001B4B0222DA711A4B00229A71184B0222D5
:103E00005A72174B00229A72154B0022DA72144B29
:103E100000221A73124B00229A73114B0022DA739C
:103E20000F4B00221A740E4800F0A0F90346002B35
:103E300001D0FFF76DFA4FF40071094801F0F5FB6E
:103E400080220021064801F0A9FB4FF4BA7201213B
:103E5000034801F0A3FB002318460837BD4680BD88
:103E60002C1900240000044080B584B000AF7860B5
:103E70000023FB730023BB737B68D3F8C83218465A
:103E800000F080FA0346FB73FB7B184600F042F912
:103E90000346BB73BB7B18461037BD4680BD80B55B
:103EA00084B000AF7860084611461A460346FB709E
:103EB0000B46BB7013463B800023FB730023BB7390
:103EC0007B68D3F8C802BB783A88F97800F081FFA4
:103ED0000346FB73FB7B184600F01CF90346BB73DB
:103EE000BB7B18461037BD4680BD80B584B000AF9F
:103EF00078600B46FB700023FB730023BB737B6869
:103F0000D3F8C832FA781146184600F0CCFF0346C1
:103F1000FB73FB7B184600F0FDF80346BB73BB7BCD
:103F200018461037BD4680BD80B584B000AF7860BC
:103F30000B46FB700023FB730023BB737B68D3F835
:103F4000C832FA781146184601F084F80346FB732C
:103F5000FB7B184600F0DEF80346BB73BB7B1846BC
:103F60001037BD4680BD80B584B000AF78600B4689
:103F7000FB700023FB730023BB737B68D3F8C8324C
:103F8000FA781146184601F0C8F80346FB73FB7B2C
:103F9000184600F0BFF80346BB73BB7B18461037CA
:103FA000BD4680BD80B485B000AF78600B46FB7025
:103FB0007B68D3F8C832FB6097F90330002B0BDA2B
:103FC000FB7803F07F02F9681346DB0013449B0083
:103FD0000B4416331B780BE0FB7803F07F02F96883
:103FE0001346DB0013449B000B4403F256231B785B
:103FF00018461437BD465DF8047B704780B584B021
:1040000000AF78600B46FB700023FB730023BB738B
:104010007B68D3F8C832FA781146184600F0B5FE2E
:104020000346FB73FB7B184600F074F80346BB7332
:10403000BB7B18461037BD4680BD80B586B000AF4B
:10404000F8607A603B600B46FB720023FB7500232F
:10405000BB75FB68D3F8C802F97A3B687A6800F050
:10406000BFFF0346FB75FB7D184600F053F803467F
:10407000BB75BB7D18461837BD4680BD80B586B080
:1040800000AFF8607A603B600B46FB720023FB7563
:104090000023BB75FB68D3F8C802F97A3B687A68DD
:1040A00000F04BFF0346FB75FB7D184600F032F82D
:1040B0000346BB75BB7D18461837BD4680BD80B52D
:1040C00082B000AF78600B46FB707B68D3F8C832D3
:1040D000FA781146184600F06BFF03461846083779
:1040E000BD4680BD80B483B000AF7860034B1846F6
:1040F0000C37BD465DF8047B704700BF101E0024DE
:1041000080B483B000AF786000BF0C37BD465DF867
:10411000047B704780B485B000AF0346FB71002379
:10412000FB73FB79032B17D801A252F823F000BFD1
:1041300041410008474100084D4100085341000833
:104140000023FB730BE00323FB7308E00123FB73E5
:1041500005E00323FB7302E00323FB7300BFFB7B3B
:1041600018461437BD465DF8047B704780B586B0AD
:1041700002AF78607B68002B01D10123FEE07B68F1
:1041800093F89534DBB2002B06D17B68002283F8CC
:1041900094247868FFF7DEFC7B68032283F895247B
:1041A0007B681B68184601F0A6FB7B6818687B6873
:1041B0001A7C8DF8002004330ECB01F077FA034609
:1041C000002B05D07B68022283F895240123D5E0DB
:1041D0007B681B680021184601F09EFB0346002BFC
:1041E00005D07B68022283F895240123C6E00023D2
:1041F000FB734AE0FA7B79681346DB0013449B00AB
:104200000B44153301221A70FA7B79681346DB00E0
:1042100013449B000B441433FA7B1A70FA7BFB7B2C
:1042200098B279681346DB0013449B000B442E338D
:1042300002461A80FA7B79681346DB0013449B0020
:104240000B44183300221A70FA7B79681346DB009E
:1042500013449B000B441C3300221A60FA7B7968DC
:104260001346DB0013449B000B44203300221A60EA
:10427000FA7B79681346DB0013449B000B4424331C
:1042800000221A60FB7B0133FB737B681B79FA7B8E
:104290009A42AFD30023FB7344E0FA7B796813465C
:1042A000DB0013449B000B4403F2552300221A70D9
:1042B000FA7B79681346DB0013449B000B4403F53B
:1042C0001573FA7B1A70FA7B79681346DB00134486
:1042D0009B000B4403F5167300221A70FA7B796871
:1042E0001346DB0013449B000B4403F517730022B5
:1042F0001A60FA7B79681346DB0013449B000B4479
:1043000003F5187300221A60FA7B79681346DB0004
:1043100013449B000B4403F5197300221A60FB7BC6
:104320000133FB737B681B79FA7B9A42B5D37B68B8
:1043300018687B681A7C8DF8002004330ECB01F0DE
:1043400037FB0346002B05D07B68022283F89524B7
:10435000012313E07B6800225A747B68012283F8F2
:1043600095247B681B7B012B02D1786801F06EF9E4
:104370007B681B68184602F07AFB0023184610374A
:10438000BD4680BD80B584B000AF78607B681B6897
:10439000FB607B6893F89434012B01D1022322E067
:1043A0007B68012283F89424FB68DB6803F04003F8
:1043B000002B09D07B685B7B012B05D1FB689B6BD5
:1043C00043F48032FB689A637B681B68184601F0EF
:1043D00081FA7B681B68184602F028FB7B68002284
:1043E00083F89424002318461037BD4680BD90B54D
:1043F0008DB000AF78607B681B683B623B6AFB61F5
:104400007B681B68184602F0E6FB0346002B40F071
:10441000B9847B681B68184602F04AFB0346002BF0
:1044200000F0AF84FB6903F500639B681B0AC3F3CC
:104430000D027B68C3F8D4247B681B68184602F021
:1044400037FB034603F00203022B07D17B681B688E
:104450005A697B681B6802F002025A617B681B681C
:10446000184602F025FB034603F01003102B61D120
:104470007B681B689A697B681B6822F010029A614E
:104480003B6A1B6ABB61BB6903F00F021346DB008A
:1044900013449B0003F514737A68134404337B615F
:1044A000BB6903F4F013B3F5802F24D1BA6947F642
:1044B000F0731340002B35D07B69D968BB691B09A9
:1044C0009BB2C3F30A039BB21A46386A02F05CF946
:1044D0007B69DA68BB691B09C3F30A031A447B6969
:1044E000DA607B695A69BB691B09C3F30A031A4482
:1044F0007B695A6116E0BB6903F4F013B3F5402FF2
:1045000010D17B6803F29C4308221946386A02F0F6
:104510003BF97B695A69BB691B09C3F30A031A4457
:104520007B695A617B681B689A697B681B6842F0EB
:1045300010029A617B681B68184602F0B9FA0346BC
:1045400003F40023B3F5002F40F0A78000237B6223
:104550007B681B68184602F0BEFAB86299E0BB6A35
:1045600003F00103002B00F08E807B681B687A6AE1
:10457000D2B21146184602F0E2FA38613B6903F004
:104580000103002B0CD07B6A5A01FB69134403F52D
:1045900030631A4601239360796A786800F0D0FE90
:1045A0003B6903F00803002B0CD07B6A5A01FB69BE
:1045B000134403F530631A4608239360796A7868D8
:1045C00000F0A6FF3B6903F01003002B08D07B6AC4
:1045D0005A01FB69134403F530631A4610239360B4
:1045E0003B6903F00203002B30D03B6A5B6903F0A8
:1045F0008003802B09D1FB6903F500635B68FA69CE
:1046000002F5006243F4806353607A6A1346DB006C
:1046100013449B0003F514737A68134404337B61DD
:104620007B69DB78012B08D17B690022DA707B6A19
:10463000DBB219467868FFF785FB7B6A5A01FB6994
:10464000134403F530631A46022393603B6903F079
:104650002003002B08D07B6A5A01FB69134403F541
:1046600030631A46202393603B6903F40053002B08
:1046700009D07B6A5A01FB69134403F530631A467B
:104680004FF4005393607B6A01337B62BB6A5B0823
:10469000BB62BB6A002B7FF462AF7B681B68184665
:1046A00002F006FA034603F48023B3F5802F40F0AE
:1046B000DB807B681B68184602F027FAB86200238B
:1046C0007B62CDE0BB6A03F00103002B00F0C280E7
:1046D0007B681B687A6AD2B21146184602F04DFA1E
:1046E00038613B6903F00103002B57D07B6A03F06C
:1046F0000F03012202FA03F3FB60FB6903F5006379
:104700005A6BFB68DB43F96901F5006113404B63A9
:104710007B6A5A01FB69134403F510631A460123AF
:1047200093607B689B79012B32D179687A6A134652
:10473000DB0013449B000B442033196878687A6AC5
:104740001346DB0013449B0003441C331B681944CD
:1047500078687A6A1346DB0013449B0003442033D5
:1047600019607B6A002B13D179687A6A1346DB00E3
:1047700013449B000B4424331B68002B08D17B6837
:1047800018687B6803F29C431A46012102F056FA2E
:104790007B6ADBB219467868FFF74FFA3B6903F092
:1047A0000803002B08D07B6A5A01FB69134403F508
:1047B00010631A46082393603B6903F01003002B33
:1047C00008D07B6A5A01FB69134403F510631A464B
:1047D000102393603B6903F04003002B08D07B6AF1
:1047E0005A01FB69134403F510631A464023936092
:1047F0003B6903F00203002B23D0796A386A01F089
:1048000035FA7A6A1346DB0013449B0010337A684A
:10481000134404337B617B69DB78012B08D17B690E
:104820000022DA707B6ADBB219467868FFF79CFADF
:104830007B6A5A01FB69134403F510631A4602238D
:1048400093603B6903F08003002B03D0796A78689A
:1048500000F0EAFC7B6A01337B62BB6A5B08BB62E7
:10486000BB6A002B7FF42EAF7B681B68184602F0F2
:104870001FF9034603F00043B3F1004F22D1FB6957
:1048800003F500635B68FA6902F5006223F0010337
:1048900053607B6893F8CC34012B08D17B680022ED
:1048A00083F8CC240021786800F0F4FE02E07868F8
:1048B000FFF73AFA7B681B685A697B681B6802F04D
:1048C00000425A617B681B68184602F0F1F8034603
:1048D00003F40063B3F5006F12D1FB6903F50063C5
:1048E0009B6803F00103012B02D17868FFF7F6F90A
:1048F0007B681B685A697B681B6802F400625A6116
:104900007B681B68184602F0D3F8034603F0006387
:10491000B3F1006F21D17B681B685A697B681B6803
:1049200002F000625A617B6893F8CC34002B11D1FD
:104930007B68012283F8CC247B681B685B6D9B0835
:1049400003F00F027B68C3F8D0240121786800F0DF
:10495000A1FE02E07868FFF7C1F97B681B68184682
:1049600002F0A6F8034603F48053B3F5805F40F0ED
:10497000B780FB6903F500635B68FA6902F50062C2
:1049800023F0010353607B681B681021184601F077
:104990006DF90023FB6246E0FB6A5A01FB69134490
:1049A00003F510631A464FF67F339360FB6A5A0192
:1049B000FB69134403F510631B68FA6A5101FA6935
:1049C0000A4402F5106223F400131360FB6A5A01D3
:1049D000FB69134403F530631A464FF67F33936047
:1049E000FB6A5A01FB69134403F530631B68FA6ADA
:1049F0005101FA690A4402F5306223F4001313608E
:104A0000FB6A5A01FB69134403F530631B68FA6AB9
:104A10005101FA690A4402F5306243F00063136001
:104A2000FB6A0133FB627B681B791A46FB6A93427F
:104A3000B2D3FB6903F50063DB69FA6902F5006232
:104A400043F00113D3617B68DB7B002B16D0FB693D
:104A500003F50063D3F88430FA6902F5006243F08D
:104A60000B03C2F88430FB6903F500635B6CFA69E1
:104A700002F5006243F00B03536415E0FB6903F594
:104A800000635A69FB6903F50063194642F22B0380
:104A900013434B61FB6903F500631B69FA6902F577
:104AA000006243F00B031361FB6903F500631B68AD
:104AB000FA6902F5006223F4FE6313607B681868EC
:104AC0007B6899797B6803F29C431A4602F0B6F83A
:104AD0007B681B685A697B681B6802F480525A61C4
:104AE0007B681B68184601F0E3FF034603F400539C
:104AF000B3F5005F23D17B681B68184602F07AF893
:104B00007B681B68184601F02AF903461A467B6841
:104B1000DA717B681C6803F095F801467B68DB79E5
:104B20001A46204600F034FE7868FFF7AEF87B683E
:104B30001B685A697B681B6802F400525A617B68E3
:104B40001B68184601F0B4FF034603F00803082B66
:104B50000AD17868FFF78BF87B681B685A697B6815
:104B60001B6802F008025A617B681B68184601F056
:104B70009FFF034603F08003802B23D13B6A9B6990
:104B800023F080023B6A9A6101237B6214E079681A
:104B90007A6A1346DB0013449B000B4403F257234D
:104BA0001B78012B05D17B6ADBB21946786800F0CF
:104BB0000AFB7B6A01337B627B681B791A467B6A3E
:104BC0009342E4D37B681B68184601F071FF0346EB
:104BD00003F48013B3F5801F3CD101237B622BE0EB
:104BE0007B6A5A01FB69134403F510631B68BB61C0
:104BF00079687A6A1346DB0013449B000B44183330
:104C00001B78012B15D1BB69002B12DA79687A6AFF
:104C10001346DB0013449B000B44173301221A7028
:104C20007B6ADBB263F07F03DBB21946786800F081
:104C3000CAFA7B6A01337B627B681B791A467B6AFE
:104C40009342CDD37B681B685A697B681B6802F46A
:104C500080125A617B681B68184601F029FF0346E1
:104C600003F40013B3F5001F56D101237B6245E026
:104C70007B6A5A01FB69134403F530631B68BB610F
:104C800079687A6A1346DB0013449B000B4403F5F2
:104C900016731B78012B2ED1BB69002B2BDABB6955
:104CA0001A0C7B68D3F8D434534003F00103002B73
:104CB00021D179687A6A1346DB0013449B000B44C8
:104CC00003F2572301221A703B6A9B6943F080026A
:104CD0003B6A9A613B6A5B6903F08003002B0AD14F
:104CE000FB6903F500635B68FA6902F5006243F44F
:104CF0000073536008E07B6A01337B627B681B7939
:104D00001A467B6A9342B3D37B681B685A697B68F7
:104D10001B6802F400125A617B681B68184601F098
:104D2000C7FE034603F08043B3F1804F0AD1786891
:104D3000FFF72CF87B681B685A697B681B6802F0D8
:104D400080425A617B681B68184601F0B1FE034639
:104D500003F00403042B15D17B681B685B68BB61FF
:104D6000BB6903F00403002B02D07868FFF71CF83E
:104D70007B681B6859687B681B68BA690A435A607C
:104D800000E000BF3437BD4690BD80B582B000AFB3
:104D900078600B46FB707B6893F89434012B01D14B
:104DA000022312E07B68012283F894247B68FA785E
:104DB0005A747B681B68FA781146184601F010FE99
:104DC0007B68002283F89424002318460837BD46E8
:104DD00080BD80B584B000AF7860084611461A46A1
:104DE0000346FB700B463B801346BB700023FB72EF
:104DF00097F90330002B0FDAFB7803F00F0213460C
:104E0000DB0013449B0010337A6813440433FB60C7
:104E1000FB6801225A700FE0FB7803F00F02134683
:104E2000DB0013449B0003F514737A6813440433C6
:104E3000FB60FB6800225A70FB7803F00F03DAB2C4
:104E4000FB681A703B88C3F30A02FB689A60FB6830
:104E5000BA781A71FB685B78002B04D0FB681B786A
:104E60001A46FB685A83BB78022B02D1FB680022EA
:104E70005A717B6893F89434012B01D102230EE020
:104E80007B68012283F894247B681B68F9681846C4
:104E900000F08AFF7B68002283F89424FB7A18468E
:104EA0001037BD4680BD80B584B000AF78600B463A
:104EB000FB7097F90330002B0FDAFB7803F00F0239
:104EC0001346DB0013449B0010337A681344043309
:104ED000FB60FB6801225A700FE0FB7803F00F02C1
:104EE0001346DB0013449B0003F514737A681344E4
:104EF0000433FB60FB6800225A70FB7803F00F0359
:104F0000DAB2FB681A707B6893F89434012B01D1F4
:104F100002230EE07B68012283F894247B681B68DF
:104F2000F968184600F0C8FF7B68002283F89424D3
:104F3000002318461037BD4680BD80B586B000AF4F
:104F4000F8607A603B600B46FB72FB7A03F00F025D
:104F50001346DB0013449B0003F51473FA681344F3
:104F600004337B617B697A68DA607B693A681A612D
:104F70007B6900225A617B6900225A70FB7A03F038
:104F80000F03DAB27B691A70FB689B79012B02D19F
:104F90007A687B69DA61FB681868FB689B791A4656
:104FA000796901F065F8002318461837BD4680BDC1
:104FB00080B483B000AF78600B46FB70FB7803F0E1
:104FC0000F0279681346DB0013449B000B4403F582
:104FD0001A731B6818460C37BD465DF8047B704792
:104FE00080B586B000AFF8607A603B600B46FB721C
:104FF000FB7A03F00F021346DB0013449B001033CF
:10500000FA68134404337B617B697A68DA607B69F0
:105010003A681A617B6900225A617B6901225A70E1
:10502000FB7A03F00F03DAB27B691A70FB689B7995
:10503000012B02D17A687B69DA61FB681868FB682A
:105040009B791A46796901F013F80023184618373E
:10505000BD4680BD80B584B000AF78600B46FB7064
:10506000FB7803F00F037A681279934201D9012388
:105070004FE097F90330002B0FDAFB7803F00F02B3
:105080001346DB0013449B0010337A681344043347
:10509000FB60FB6801225A700DE0FA781346DB00D2
:1050A00013449B0003F514737A6813440433FB60C4
:1050B000FB6800225A70FB6801229A70FB7803F0AB
:1050C0000F03DAB2FB681A707B6893F89434012BF3
:1050D00001D102231DE07B68012283F894247B68C0
:1050E0001B68F968184601F0A7FBFB7803F00F0373
:1050F000002B09D17B6818687B6899797B6803F27B
:105100009C431A4601F09AFD7B68002283F89424A0
:10511000002318461037BD4680BD80B584B000AF6F
:1051200078600B46FB70FB7803F00F037A68127906
:10513000934201D9012342E097F90330002B0FDAA3
:10514000FB7803F00F021346DB0013449B0010337F
:105150007A6813440433FB60FB6801225A700FE045
:10516000FB7803F00F021346DB0013449B0003F5AA
:1051700014737A6813440433FB60FB6800225A708E
:10518000FB6800229A70FB7803F00F03DAB2FB6829
:105190001A707B6893F89434012B01D102230EE03E
:1051A0007B68012283F894247B681B68F9681846A1
:1051B00001F0B0FB7B68002283F89424002318469A
:1051C0001037BD4680BD80B584B000AF78600B4617
:1051D000FB7097F90330002B0CDAFB7803F00F0219
:1051E0001346DB0013449B0010337A6813440433E6
:1051F000FB600CE0FB7803F00F021346DB00134466
:105200009B0003F514737A6813440433FB607B68D6
:105210001B68F968184601F0CFF90346FB72FB7A68
:1052200018461037BD4680BD80B58AB002AF7860A1
:1052300039607B681B687B617B693B613A68134618
:10524000DB0013449B0010337A6813440433FB6083
:10525000FB685A69FB681B699A4201D901236BE01C
:10526000FB681A69FB685B69D31AFB61FB689B6882
:10527000FA699A4202D9FB689B68FB61FB690333B8
:105280009B08BB612AE0FB681A69FB685B69D31A5B
:10529000FB61FB689B68FA699A4202D9FB689B68CC
:1052A000FB61FB6903339B08BB61FB68D9683B6802
:1052B000DAB2FB6998B27B689B7900930346786900
:1052C00001F024FAFB68DA68FB691A44FB68DA60CB
:1052D000FB685A69FB691A44FB685A613B685A01CA
:1052E0003B69134403F510639B699BB2BA699A4208
:1052F00009D8FB685A69FB681B699A4203D2FB68AC
:105300001B69002BBFD1FB681A69FB685B699A4275
:1053100011D83B6803F00F03012202FA03F3BB60CC
:105320003B6903F500635A6BBB68DB43396901F5E0
:10533000006113404B63002318462037BD4680BDF3
:1053400080B588B000AF786039607B681B68FB610E
:10535000FB69BB61FB693C3304331B687B613B68C1
:105360005A01BB69134403F530639B683B617B685A
:105370009B79012B7BD13B6903F00803002B15D0EF
:105380007B69614A934240F2B9803B6903F4004370
:10539000002B00F0B3803B685A01BB69134403F54E
:1053A00030631A464FF400439360A7E03B6903F073
:1053B0002003002B09D03B685A01BB69134403F555
:1053C00030631A462023936098E03B6903F028037A
:1053D000002B40F093807B694B4A93420FD93B6985
:1053E00003F40043002B0AD03B685A01BB69134405
:1053F00003F530631A464FF4004393607EE03A6849
:105400001346DB0013449B0003F514737A681344BE
:105410000433FB60FB681A6A3B685901BB690B44A3
:1054200003F530631B69C3F31203D21AFB685A6198
:105430003B68002B14D1FB681B69002B09D17B68EA
:1054400018687B6803F29C431A46012101F0F6FBC1
:1054500006E0FB68DA68FB685B691A44FB68DA609F
:105460003B68DBB219467868FEF7CCFB46E07B6907
:10547000264A934224D13B6903F40043002B0AD00F
:105480003B685A01BB69134403F530631A464FF475
:105490000043936032E03B6903F02003002B08D007
:1054A0003B685A01BB69134403F530631A46202355
:1054B00093603B68DBB219467868FEF7A3FB1DE0FA
:1054C0003B68002B14D179683A681346DB0013441B
:1054D0009B000B4403F519731B68002B08D17B68F4
:1054E00018687B6803F29C431A46002101F0A6FB72
:1054F0003B68DBB219467868FEF784FB0023184648
:105500002037BD4680BD00BF0A30544F0A31544F8A
:1055100080B586B000AF786039607B681B687B61BE
:105520007B693B617B693C3304331B68FB603B68F0
:105530005A013B69134403F530639B68BB60FB6809
:10554000154A93420ED9BB6803F40043002B09D0DF
:105550003B685A013B69134403F530631A464FF424
:10556000004393607868FEF73BFBFB680A4A93426E
:105570000CD97B689B79012B08D17B6818687B6804
:1055800003F29C431A46012101F058FB0023184600
:105590001837BD4680BD00BF0A30544F80B485B077
:1055A00000AF78600B46FB7013463B807B681B683E
:1055B0005B6ABB60FB78002B07D13B8819047B68D2
:1055C0001B68BA680A439A6228E07B681B689B6A7A
:1055D0001B0CBA681344BB600023FB730DE07B68AF
:1055E0001A68FB7B40339B0013445B681B0CBA6852
:1055F0001344BB60FB7B0133FB73FA7BFB78013BFD
:105600009A42ECD33B8818047B681968FB78013B0D
:10561000BA68024340339B000B445A60002318468B
:105620001437BD465DF8047B704780B483B000AF8B
:1056300078600B467B807B681B687A885A620023FF
:1056400018460C37BD465DF8047B704780B485B0C2
:1056500000AF78607B681B68FB607B680122C3F841
:10566000D8247B68002283F8CC24FB689B6943F034
:105670000062FB689A61FB685A6D054B1343FA6838
:105680005365002318461437BD465DF8047B704708
:105690000300001080B483B000AF78600B46FB704D
:1056A00000BF0C37BD465DF8047B704784B080B501
:1056B00084B000AF786007F11C0080E80E0097F816
:1056C0002130012B21D17B689B6B23F480327B68D6
:1056D0009A637B68DA682C4B13407A68D3607B68E6
:1056E000DB6823F440127B68DA6097F82830012BDE
:1056F00005D17B68DB6843F480127B68DA607868E8
:1057000001F0FAFA0346FB731BE07B68DB6843F0A9
:1057100040027B68DA60786801F0EEFA0346FB73BA
:1057200097F82530002B06D17B689B6B43F48032C1
:105730007B689A6305E07B689B6B23F480327B680F
:105740009A63BB7F012B16D17B68DB6D9AB27B68B5
:10575000DA657B68DA6D0D4B13437A68D3657B6835
:105760009B6843F006027B689A607B689B6843F005
:1057700020027B689A60FB7B18461037BD46BDE867
:10578000804004B0704700BFBFFFBDFF0000EE03C4
:1057900080B487B000AFF860B9601346FB71FB7945
:1057A000022B65D1BB68414A934206D9BB68404A87
:1057B000934202D20F237B6162E0BB683C4A934272
:1057C00006D3BB683B4A934202D20E237B6157E06B
:1057D000BB68384A934206D3BB68374A934202D229
:1057E0000D237B614CE0BB68334A934206D3BB6810
:1057F000324A934202D80C237B6141E0BB682F4AB6
:10580000934206D9BB682E4A934202D80B237B6190
:1058100036E0BB682A4A934206D9BB68294A9342BC
:1058200002D80A237B612BE0BB68264A934206D943
:10583000BB68254A934202D209237B6120E0BB6802
:10584000214A934206D3BB68204A934202D80823D8
:105850007B6115E0BB681D4A934206D9BB681C4AB0
:10586000934202D207237B610AE006237B6107E0B3
:10587000FB79002B02D109237B6101E009237B61C5
:10588000FB68DB6823F47052FB68DA60FB68DA6857
:105890007B699B0203F470531A43FB68DA600023B0
:1058A00018461C37BD465DF8047B7047BFACD80076
:1058B000C0E1E4000024F400807306019F491A014E
:1058C000FF2C31013FA44C0100366E011FABA60135
:1058D0000048E80180B483B000AF78607B689B68C3
:1058E00043F001027B689A60002318460C37BD46DE
:1058F0005DF8047B704780B483B000AF78607B684C
:105900009B6823F001027B689A60002318460C37DD
:10591000BD465DF8047B704780B584B000AF786009
:105920000B46FB700023FB607B68DB6823F0C04202
:105930007B68DA60FB78012B15D17B68DB6843F06C
:1059400000527B68DA600A2007F008FBFB680A3324
:10595000FB60786801F03FF90346012B1ED0FB681D
:10596000C72BF0D91AE0FB78002B15D17B68DB68D8
:1059700043F080427B68DA600A2007F0EFFAFB68A8
:105980000A33FB60786801F026F90346002B05D046
:10599000FB68C72BF0D901E0012305E0FB68C82BA9
:1059A00001D1012300E0002318461037BD4680BD19
:1059B00084B080B586B000AF786007F1240080E83D
:1059C0000E000023FB757B68FB6000233B6109E050
:1059D0007A683B6940339B00134400225A603B695C
:1059E00001333B613B690E2BF2D997F82E30002B27
:1059F0001CD1FB6803F500635B68FA6802F500627E
:105A000043F0020353607B689B6B23F400127B68B6
:105A10009A637B681B6843F040027B681A607B686E
:105A20001B6843F080027B681A6005E07B689B6B13
:105A300043F400127B689A63FB6803F560631A46BF
:105A40000023136097F82930012B0DD197F82730E8
:105A5000002B04D10021786800F068F908E00121EA
:105A6000786800F063F903E00321786800F05EF9DC
:105A70001021786800F0FAF80346002B01D00123CA
:105A8000FB75786800F024F90346002B01D0012350
:105A9000FB75FB6803F500631A4600231361FB687E
:105AA00003F500631A4600235361FB6803F50063A6
:105AB0001A460023D36100233B6143E03B695A014E
:105AC000FB68134403F510631B6803F00043B3F154
:105AD000004F18D13B69002B0AD13B695A01FB6882
